:100000000C942A000C9469000C9469000C9469000B
:100010000C9469000C9469000C9469000C946900BC
:100020000C9469000C9469000C9469000C946900AC
:100030000C9469000C9469000C9469000C9469009C
:100040000C9469000C9469000C9469000C9469008C
:100050000C94690011241FBECFE5D8E0DEBFCDBFF0
:0C0060000E9436000C945400F894FFCF6E
:10006C000E945F00809BFECF87EA91E60197F1F733
:10007C0000C00000809BF6CF82B3806182BB9FE3FF
:10008C002DE083E0915020408040E1F700C000005B
:0C009C0082B38F7E82BB8099FECFE4CF40
:1000A800EC010E946E000E946D00CE010E946F005C
:0600B800CE010E946B0066
:1000BE0081B38E7F81BB82B38E7F82BB81B3806121
:0400CE0081BB089555
:0400D2000C9400008A
:0400D6000E94340050
:0200DA00089587
:0200DC00089585
:0200DE00089583
:00000001FF
