:020000040800F2
:1000000000280020050C0008550C0008550C0008BD
:10001000550C0008550C0008550C000800000000A5
:10002000000000000000000000000000550C000867
:10003000550C000800000000550C0008550C000885
:10004000550C0008550C0008550C0008550C00080C
:10005000550C0008550C0008F10600081D070008A3
:100060004907000875070008A1070008550C00089B
:10007000550C0008550C0008550C0008550C0008DC
:10008000550C0008550C0008550C0008550C0008CC
:10009000550C0008550C0008550C0008CD07000849
:1000A000550C0008550C0008550C0008550C0008AC
:1000B000550C0008550C0008550C0008550C00089C
:1000C000550C0008550C0008550C0008550C00088C
:1000D000550C0008550C0008550C0008550C00087C
:1000E000AD080008550C000800000000550C000881
:1000F000550C0008550C0008550C0008550C00085C
:10010000550C0008550C0008550C0008550C00084B
:10011000550C0008550C0008550C0008550C00083B
:10012000550C0008550C0008550C0008550C00082B
:1001300010B5054C237833B9044B13B10448AFF321
:1001400000800123237010BD00000020000000008B
:10015000A00C000808B5034B1BB103490348AFF3DB
:10016000008008BD0000000004000020A00C000872
:1001700080B485B000AF78600023FB600BE0002303
:10018000BB6002E0BB680133BB60BB68FE2BF9D9E2
:10019000FB680133FB60FA687B689A42EFD300BFCB
:1001A0001437BD4680BC704780B582B000AF214B8C
:1001B0009B69204A43F00403936100237B7102236F
:1001C000BB710023FB7109E0FB793B713B1D1946B4
:1001D000194800F0F1FBFB790133FB71FB79072B28
:1001E000F2D908233B713B1D1946134800F0E4FB8C
:1001F00009233B713B1D19460F4800F0DDFB0A2324
:100200003B713B1D19460C4800F0D6FB2820FFF738
:10021000AFFF382000F012F80F2000F00FF8012097
:1002200000F00CF8062000F009F800BF0837BD46C2
:1002300080BD00BF001002400008014080B582B0C0
:1002400000AF0346FB7100F023F8FB799BB219461F
:100250000E4800F09EFC002208210C4800F072FCC1
:1002600000220921094800F06DFC01220A210748FB
:1002700000F068FC0220FFF77BFF00220A21034800
:1002800000F060FC00BF0837BD4680BD000801409B
:1002900080B582B000AF05237B700223BB700023C2
:1002A000FB7109E0FB793B703B4619461D4800F0A5
:1002B00083FBFB790133FB71FB79072BF2D9002219
:1002C0000821184800F03EFC01220921154800F0E1
:1002D00039FC0120FFF74CFF01220A21114800F0F0
:1002E00031FC0220FFF744FF00220A210D4800F0F4
:1002F00029FC00237B700223BB700023BB7109E043
:10030000BB793B703B461946064800F055FBBB796C
:100310000133BB71BB79072BF2D900BF0837BD464B
:1003200080BD00BF0008014080B582B000AF034629
:10033000FB71204B1B78102B04D10021022000F010
:1003400052F80DE01B4B1B78202B09D10120FFF741
:1003500075FF0021012000F046F8164B00221A70AC
:10036000FB799BB21946144800F013FC01220821C6
:10037000114800F0E7FB002209210F4800F0E2FBE2
:100380000120FFF7F5FE01220A210B4800F0DAFBFD
:100390000220FFF7EDFE00220A21074800F0D2FB01
:1003A000044B1B780133DAB2024B1A7000BF0837D6
:1003B000BD4680BD1C0000200008014080B582B011
:1003C00000AF786007E07B681B781846FFF7ACFF4A
:1003D0007B6801337B607B681B78002BF3D100BF07
:1003E0000837BD4680BD80B582B000AF03460A46DF
:1003F000FB711346BB71FB79012B08D1BB790F2B25
:1004000005D8BB79803BDBB21846FFF717FFFB79B5
:10041000022B08D1BB790F2B05D8BB79403BDBB24F
:100420001846FFF70BFF00BF0837BD4680BD80B4FC
:1004300083B000AF0346FB71FB79042B03D8FB7933
:100440000633DBB20DE0FB79042B04D9FB79092BD1
:1004500001D8172305E0FB79092B01D9282300E0F7
:10046000FF2318460C37BD4680BC704790B585B059
:1004700000AF78608F4A7B685B789B08D8B20346F0
:10048000023352F823307A68527802F00302920065
:100490000F2101FA02F2D24386491A40831C41F827
:1004A0002320844A7B685B789B08D8B203460233DA
:1004B00052F823307A68127811467A68527802F03E
:1004C0000302920001FA02F27A491A43831C41F8AE
:1004D00023207B685B783B7305237B730023BB730E
:1004E0007B681B78002B19D07B681B78012B13D0FD
:1004F0007B681B78022B0DD07B681B78032B07D001
:100500007B681B78042B01D16B4B08E0002306E0CD
:100510006A4B04E06A4B02E06A4B00E06A4B07F169
:100520000C021146184600F047FA7B689B78032BB3
:100530006AD801A252F823F049050008790500089D
:10054000A9050008D7050008604BDB687A68527877
:10055000114601228A4011465C4A0B43D3605B4B33
:100560009B687A685278114601228A40D24311462C
:10057000564A0B40936047E0544BDB687A685278E8
:10058000114601228A40D2431146504A0B40D360A3
:100590004E4B9B687A685278114601228A40114678
:1005A0004A4A0B4393602FE0484BDB687A685278E5
:1005B000114601228A401146444A0B43D360434B03
:1005C0009B687A685278114601228A4011463F4A58
:1005D0000B43936018E03D4BDB687A685278114614
:1005E00001228A40D2431146384A0B40D360374B30
:1005F0009B687A685278114601228A40D24311469C
:10060000324A0B40936000BF7B685B781846FFF767
:100610000EFF0346FB737B68DB78012B1ED12B4B4F
:100620001B687A685278114601228A401146274A8F
:100630000B431360264AFB7B5B09D8B2034652F892
:100640002330FA7B02F01F02012101FA02F2144664
:100650001F4A0146234342F821301FE01B4B1B6811
:100660007A685278114601228A40D2431146174ACD
:100670000B401360164AFB7B5B09D8B2034620335C
:1006800052F82330FA7B02F01F02012101FA02F234
:100690000F491A4300F1200341F823207B685B785F
:1006A00019467B685B680B4A42F8213000BF14375B
:1006B000BD4690BD000001400018014000140140FB
:1006C00000100140000C01400008014000040140FE
:1006D00000E100E02000002080B582B000AF78602B
:1006E0007868FFF7C3FE00BF0837BD4680BD000035
:1006F00080B500AF074B1B68002B02D0054B1B6871
:100700009847054B5B69044A43F00103536100BFFE
:1007100080BD00BF200000200004014080B500AF74
:10072000074B5B68002B02D0054B5B689847054B75
:100730005B69044A43F00203536100BF80BD00BF00
:10074000200000200004014080B500AF074B9B68EB
:10075000002B02D0054B9B689847054B5B69044A08
:1007600043F00403536100BF80BD00BF20000020A0
:100770000004014080B500AF074BDB68002B02D0BE
:10078000054BDB689847054B5B69044A43F0080357
:10079000536100BF80BD00BF200000200004014065
:1007A00080B500AF074B1B69002B02D0054B1B69BE
:1007B0009847054B5B69044A43F01003536100BF3F
:1007C00080BD00BF200000200004014080B500AFC4
:1007D000344B5B695B0903F00103002B0DD0324BF6
:1007E0005B69002B02D0304B5B6998472D4B5B69EE
:1007F0002C4A43F02003536152E02A4B5B699B096A
:1008000003F00103002B0DD0274B9B69002B02D076
:10081000254B9B699847234B5B69224A43F0400371
:1008200053613DE01F4B5B69DB0903F00103002BC3
:100830000DD01D4BDB69002B02D01B4BDB699847A9
:10084000184B5B69174A43F08003536128E0154B4E
:100850005B691B0A03F00103002B0DD0124B1B6ACE
:10086000002B02D0104B1B6A98470E4B5B690D4A58
:1008700043F48073536113E00A4B5B695B0A03F036
:100880000103002B0CD0084B5B6A002B02D0064BF7
:100890005B6A9847034B5B69024A43F400735361F8
:1008A00000BF80BD000401402000002080B500AFE3
:1008B0003F4B5B699B0A03F00103002B0DD03D4BBE
:1008C0009B6A002B02D03B4B9B6A9847384B5B6975
:1008D000374A43F48063536167E0354B5B69DB0A59
:1008E00003F00103002B0DD0324BDB6A002B02D04A
:1008F000304BDB6A98472E4B5B692D4A43F400630B
:10090000536152E02A4B5B691B0B03F00103002B80
:100910000DD0284B1B6B002B02D0264B1B6B98472E
:10092000234B5B69224A43F4805353613DE0204BE3
:100930005B695B0B03F00103002B0DD01D4B5B6B60
:10094000002B02D01B4B5B6B9847194B5B69184A15
:1009500043F40053536128E0154B5B699B0B03F094
:100960000103002B0DD0134B9B6B002B02D0114BBE
:100970009B6B98470E4B5B690D4A43F48043536170
:1009800013E00B4B5B69DB0B03F00103002B0CD076
:10099000084BDB6B002B02D0064BDB6B9847044BFC
:1009A0005B69034A43F40043536100BF80BD00BF4D
:1009B000000401402000002080B485B000AF7860C2
:1009C00039603B681B780F2B00F2B7803B681B78BF
:1009D000072B01D87B6801E07B680433BB600023F0
:1009E000FB6019E0BB681A683B681B78072B03D8CB
:1009F0003B681B789B0003E03B681B78083B9B002F
:100A0000F9680B44012101FA03F3DB431A40BB6888
:100A10001A60FB680133FB60FB68032BE2DD3B6877
:100A20005B78032B2DD8BB681A683B689B78194606
:100A30003B681B78072B03D83B681B789B0003E0BF
:100A40003B681B78083B9B0001FA03F31A43BB6821
:100A50001A60BB681A683B685B7819463B681B786C
:100A6000072B03D83B681B789B0003E03B681B788F
:100A7000083B9B0001FA03F39B001A43BB681A6012
:100A80005CE03B685B78042B03D03B685B78052B0C
:100A900017D1BB681A683B685B78191F3B681B78E5
:100AA000072B03D83B681B789B0003E03B681B784F
:100AB000083B9B0001FA03F39B001A43BB681A60D2
:100AC0003CE03B685B78062B03D03B685B78072BE8
:100AD00034D1BB681B683A681278072A07D83A688D
:100AE00012789200022101FA02F2920007E03A68BD
:100AF0001278083A9200022101FA02F292001A4397
:100B0000BB681A603B685B78062B0BD17B68DB689F
:100B10003A681278114601228A40D2431A407B6813
:100B2000DA600BE07B68DB683A68127811460122D4
:100B30008A401A437B68DA6000E000BF1437BD4684
:100B400080BC704780B483B000AF78600B46FB7008
:100B50001346BB70BB78002B0AD17B68DB68FA7840
:100B6000012101FA02F2D2431A407B68DA600BE0FD
:100B7000BB78012B08D17B68DB68FA78012101FA88
:100B800002F21A437B68DA6000BF0C37BD4680BCB6
:100B9000704780B483B000AF78600B467B807A8862
:100BA0007B68DA6000BF0C37BD4680BC7047000030
:100BB00080B500AF0248FFF701FC00BF80BD00BF59
:100BC000B80C000880B582B000AF0C4B9B690B4A93
:100BD00043F004039361094B9B69084A43F00803FF
:100BE0009361FFF7E1FA064A3B4692E8030083E887
:100BF00003003B461846FFF76FFDFEE7001002407A
:100C0000C40C00080D488546AFF300800C480D4920
:100C10000D4A002302E0D458C4500433C4188C4257
:100C2000F9D30A4A0A4C002301E013600432A242BD
:100C3000FBD300F011F8FFF7C5FFFEE70028002006
:100C40000000002000000020D40C0008000000205C
:100C50005C000020FEE7000070B500250C4E0D4C36
:100C6000A41BA410A54209D100F01AF800250A4ED1
:100C70000A4CA41BA410A54205D170BD56F825301E
:100C800098470135EEE756F8253098470135F2E7E9
:100C9000CC0C0008CC0C0008CC0C0008D00C0008D0
:100CA000F8B500BFF8BC08BC9E467047F8B500BF59
:080CB000F8BC08BC9E46704729
:100CB80048656C6C6F205468657265000109010114
:040CC800B10B000864
:040CCC0055010008C6
:040CD00031010008E6
:0400000508000C05DE
:00000001FF
