:100000000C942A000C94A4000C94A4000C94A4005A
:100010000C94A4000C94A4000C94A4000C94A400D0
:100020000C94A4000C94A4000C94A4000C94A400C0
:100030000C94A4000C94A4000C94A4000C94A400B0
:100040000C94A4000C94A4000C94A4000C94A400A0
:100050000C94A40011241FBECFE5D8E0DEBFCDBFB5
:0C0060000E9436000C949900F894FFCF29
:10006C000E945A0090E085E0809BFECFE7EAF1E623
:10007C003197F1F700C00000809BF6CF42B321E02E
:10008C0030E002C0220F331F8A95E2F7242B22BBEB
:10009C00892F90E0019663E070E00E947100982F28
:0800AC008B5F8099FECFE0CFCD
:1000B40081B38E7F81BB82B38E7F82BB25E00CC06F
:1000C40031B381E090E0022E02C0880F991F0A9498
:0E00D400E2F7832B81BB2F5F283090F3089555
:1000E20097FB072E16F4009407D077FD09D00E94E3
:1000F200850007FC05D03EF4909581959F4F0895A9
:08010200709561957F4F08958F
:10010A00AA1BBB1B51E107C0AA1FBB1FA617B70733
:10011A0010F0A61BB70B881F991F5A95A9F780954F
:08012A009095BC01CD01089580
:10013200EC010E94A9000E94A800CE010E94AA0020
:06014200CE010E94A600A0
:040148000C94000013
:04014C000E943400D9
:02015000089510
:0201520008950E
:0201540008950C
:00000001FF
