:100000000C9430000C94D5010C94D5010C94D501BE
:100010000C94D5010C94D5010C94D5010C94D50108
:100020000C94D5010C94D5010C94D5010C94D501F8
:100030000C94D5010C94D5010C94D5010C94D501E8
:100040000C94D5010C94D5010C94D5010C94D501D8
:100050000C94D501006000780003B8007800798026
:1000600011241FBECFE5D8E0DEBFCDBFE4E5F0E050
:1000700040E017C0B591A59135912591059107FDF7
:100080000CC095918591EF01F92FE82F05900D9205
:10009000A217B307D9F7FE0104C01D92A217B30738
:1000A000E1F7E036F40731F70E94BF010C94CA0172
:0400B000F894FFCFF2
:1000B40020E011C032B3E22FF0E0E059FF4F81E0BD
:1000C40090E0008002C0880F991F0A94E2F780959F
:1000D400832382BB2F5F243068F320E00FC080B3FA
:1000E400E22FF0E0EC58FF4F90E0008002C09595BD
:1000F40087950A94E2F780FF05C02F5F243078F3D8
:1001040081E001C080E0811165C020E010C032B3FD
:10011400E22FF0E0E059FF4F81E090E0008002C060
:10012400880F991F0A94E2F7832B82BB2F5F243038
:1001340070F3A0E04AC022B36A2F70E0FB01E059DB
:10014400FF4F81E090E0008002C0880F991F0A945D
:10015400E2F78095822382BB20E026C080B3422F41
:1001640050E0FA01EC58FF4F3081E32F90E002C0D9
:10017400959587953A95E2F780FD15C080B390E098
:100184000E2E02C0959587950A94E2F780FFF6CF6C
:10019400440F551F440F551F405A5F4FFA01E60F95
:1001A400F71F808108952F5F2430C0F222B3FB0132
:1001B400E059FF4F81E090E0008002C0880F991F52
:1001C4000A94E2F7822B82BBAF5FA43008F4B3CF6A
:0801D4008FE308958FE3089505
:1001DC0020E01CC041B3E22FF0E0EC58FF4F81E06F
:1001EC0090E0BC01008002C0660F771F0A94E2F712
:1001FC00362F3095342331BB32B3008002C0880FC8
:10020C00991F0A94E2F7832B82BB2F5F243010F3E3
:10021C0020E01BC031B3E22FF0E0E059FF4F81E04A
:10022C0090E0AC01008002C0440F551F0A94E2F725
:10023C00432B41BB32B3008002C0880F991F0A9434
:10024C00E2F78095832382BB2F5F243018F3089547
:10025C00CF93C82F80917800803129F460E082E040
:10026C000E9492010BC0803249F481E00E94790116
:10027C0060E081E00E94920110927800CBBB88B3C1
:10028C00826088BB88B38B7F88BB88B3886088BB4F
:10029C0083EF91E00197F1F700C0000088B3877FEE
:1002AC0088BB809178008F5F80937800CF91089500
:1002BC008FEF8ABB87B38E6087BB8FE097E2019785
:1002CC00F1F700C0000088E30E94790188E30E94E6
:1002DC0079018FE00E94790181E00E94790186E02A
:0602EC000E947901089553
:1002F200CF93C82F0E94A901CBBB88B38D7F88BB47
:1003020088B38B7F88BB88B3886088BB83EF91E01A
:100312000197F1F700C0000088B3877F88BBCF91B7
:0203220008953C
:10032400CF93DF93C82FD62F813031F4603120F47E
:1003340080E8860F0E947901C23031F4D03120F474
:0E03440080EC8D0F0E947901DF91CF9108951A
:100352001ABA88B38D7F88BB88B3846088BB88B3A0
:10036200886088BB83EF91E00197F1F700C000003D
:0C03720088B3877F88BB8FEF8ABB08959B
:10037E000E945E010E94EE000E945A008F33E1F34C
:06038E000E942E01F9CFD0
:10039400EC010E94DA010E94D901CE010E94DB0126
:0603A400CE010E94D7010A
:0403AA000C940000AF
:0403AE000E94580051
:0203B2000895AC
:0203B4000895AA
:0203B6000895A8
:1003B8003738392F3435362A3132332D43303D2BF7
:0403C800040506071B
:0403CC000001020327
:00000001FF
