:100000000C942D000C941E010C941E010C941E01E6
:100010000C941E010C941E010C941E010C941E01E4
:100020000C941E010C941E010C941E010C941E01D4
:100030000C941E010C941E010C941E010C941E01C4
:100040000C941E010C941E010C941E010C941E01B4
:100050000C941E0100600061800011241FBECFE5DA
:10006000D8E0DEBFCDBFE4E5F0E040E017C0B591D9
:10007000A59135912591059107FD0CC0959185912C
:10008000EF01F92FE82F05900D92A217B307D9F7CA
:10009000FE0104C01D92A217B307E1F7E935F4078A
:0E00A00031F70E9487000C941301F894FFCFF3
:1000AE00CF93C82F80916000803129F460E082E008
:1000BE000E94D9000BC0803249F481E00E94C0003A
:1000CE0060E081E00E94D90010926000CBBB88B343
:1000DE00826088BB88B38B7F88BB88B3886088BBFF
:1000EE0083EF91E00197F1F700C0000088B3877F9E
:1000FE0088BB809160008F5F80936000CF910895E0
:10010E00CF93DF9300D000D0CDB7DEB788E495E66D
:10011E009A8389838CE690E09C838B830E94A50052
:10012E00CE0101960E9406012FE58AEE90E0215045
:0C013E0080409040E1F700C00000F2CFCC
:10014A008FEF8ABB87B38E6087BB8FE097E20197F8
:10015A00F1F700C0000088E30E94C00088E30E9413
:10016A00C0008FE00E94C00081E00E94C00086E0CB
:06017A000E94C000089580
:10018000CF93C82F0E94F000CBBB88B38D7F88BB74
:1001900088B38B7F88BB88B3886088BB83EF91E08E
:1001A0000197F1F700C0000088B3877F88BBCF912B
:0201B0000895B0
:1001B200CF93DF93C82FD62F813031F4603120F4F2
:1001C20080E8860F0E94C000C23031F4D03120F4A2
:0E01D20080EC8D0F0E94C000DF91CF91089548
:1001E0001ABA88B38D7F88BB88B3846088BB88B314
:1001F000886088BB83EF91E00197F1F700C00000B1
:0C02000088B3877F88BB8FEF8ABB08950E
:10020C00CF93DF93EC0103C00E94570021968881A5
:0A021C008111FACFDF91CF91089510
:10022600EC010E9423010E942201CE010E942401BA
:06023600CE010E94200130
:04023C000C9400001E
:040240000E945500C3
:0202440008951B
:02024600089519
:02024800089517
:00000001FF
