:020000040800F2
:1000000000280020090800085908000859080008BD
:1000100059080008590800085908000800000000A5
:100020000000000000000000000000005908000867
:100030005908000800000000590800085908000885
:10004000590800085908000859080008590800080C
:1000500059080008590800085908000859080008FC
:1000600059080008590800085908000859080008EC
:1000700059080008590800085908000859080008DC
:1000800059080008590800085908000859080008CC
:1000900059080008590800085908000859080008BC
:1000A00059080008590800085908000859080008AC
:1000B000590800085908000859080008590800089C
:1000C000590800085908000859080008590800088C
:1000D000590800085908000859080008590800087C
:1000E00059080008590800080000000059080008D5
:1000F000590800085908000859080008590800085C
:10010000590800085908000859080008590800084B
:10011000590800085908000859080008590800083B
:10012000590800085908000859080008590800082B
:1001300010B5054C237833B9044B13B10448AFF321
:1001400000800123237010BD180000200000000073
:10015000A408000808B5034B1BB103490348AFF3DB
:10016000008008BD000000001C000020A40800085A
:1001700080B584B000AF0023FB7310E0FB7B1A4A0C
:10018000D35C3B7207237B720123BB7207F1080328
:100190001946164800F006FAFB7B0133FB73FB7B24
:1001A000032BEBD90023BB7317E0BB7B104AD35C56
:1001B0003B7100237B710123BB713B1D19460B482A
:1001C00000F0F0F9BB7B0A4AD35C002219460748CD
:1001D00000F0C2FABB7B0133BB73BB7B032BE4D9BA
:1001E00000BF1037BD4680BD10000020000C01404C
:1001F0001400002080B582B000AF0023FB710AE03C
:10020000FB793F4AD35C002219463E4800F0A4FA2D
:10021000FB790133FB71FB79032BF1D90123BB710E
:1002200000237B710FE07B79374AD35C1946354850
:1002300000F07EFA0346002B02D10023BB7105E0DB
:100240007B7901337B717B79032BECD9BB79002B54
:1002500001D03F2350E000233B710AE03B79284A5C
:10026000D35C01221946274800F076FA3B79013326
:100270003B713B79032BF1D90023FB7038E0FB780D
:100280001F4AD35C002219461E4800F065FA00237D
:10029000BB701FE0BB781C4AD35C1946194800F0BC
:1002A00047FA0346002B12D100BFBB78164AD35C35
:1002B0001946144800F03CFA0346002BF5D0BA78F2
:1002C000FB78124992000A4413441B7814E0BB786F
:1002D0000133BB70BB78032BDCD9FB78084AD35CB5
:1002E00001221946074800F037FAFB780133FB700A
:1002F000FB78032BC3D93F2318460837BD4680BD82
:1003000014000020000C014010000020000000201C
:1003100080B485B000AF78600023FB600BE0002361
:10032000BB6002E0BB680133BB60BB68FE2BF9D940
:10033000FB680133FB60FA687B689A42EFD300BF29
:100340001437BD4680BC704780B582B000AF214BEA
:100350009B69204A43F00403936100237B710223CD
:10036000BB710023FB7109E0FB793B713B1D194612
:10037000194800F017F9FB790133FB71FB79072B62
:10038000F2D908233B713B1D1946134800F00AF9C6
:1003900009233B713B1D19460F4800F003F90A235E
:1003A0003B713B1D19460C4800F0FCF82820FFF774
:1003B000AFFF382000F012F80F2000F00FF80120F6
:1003C00000F00CF8062000F009F800BF0837BD4621
:1003D00080BD00BF001002400008014080B582B01F
:1003E00000AF0346FB7100F023F8FB799BB219467E
:1003F0000E4800F0D8F9002208210C4800F0ACF9B2
:1004000000220921094800F0A7F901220A21074822
:1004100000F0A2F90220FFF77BFF00220A21034827
:1004200000F09AF900BF0837BD4680BD00080140C2
:1004300080B582B000AF05237B700223BB70002320
:10044000FB7109E0FB793B703B4619461D4800F003
:10045000A9F8FB790133FB71FB79072BF2D9002254
:100460000821184800F078F901220921154800F008
:1004700073F90120FFF74CFF01220A21114800F017
:100480006BF90220FFF744FF00220A210D4800F01B
:1004900063F900237B700223BB700023BB7109E06A
:1004A000BB793B703B461946064800F07BF8BB79A8
:1004B0000133BB71BB79072BF2D900BF0837BD46AA
:1004C00080BD00BF0008014080B582B000AF034688
:1004D000FB71204B1B78102B04D10021022000F06F
:1004E0003DF80DE01B4B1B78202B09D10120FFF7B5
:1004F00075FF0021012000F031F8164B00221A7020
:10050000FB799BB21946144800F04DF901220821ED
:10051000114800F021F9002209210F4800F01CF9D0
:100520000120FFF7F5FE01220A210B4800F014F923
:100530000220FFF7EDFE00220A21074800F00CF927
:10054000044B1B780133DAB2024B1A7000BF083734
:10055000BD4680BD340000200008014080B582B057
:1005600000AF03460A46FB711346BB71FB79012BB2
:1005700008D1BB790F2B05D8BB79803BDBB218467D
:10058000FFF72CFFFB79022B08D1BB790F2B05D885
:10059000BB79403BDBB21846FFF720FF00BF0837AE
:1005A000BD4680BD80B485B000AF786039603B68DF
:1005B0001B780F2B00F2B7803B681B78072B01D804
:1005C0007B6801E07B680433BB600023FB6019E0BB
:1005D000BB681A683B681B78072B03D83B681B78FD
:1005E0009B0003E03B681B78083B9B00F9680B44C9
:1005F000012101FA03F3DB431A40BB681A60FB6870
:100600000133FB60FB68032BE2DD3B685B78032B67
:100610002DD8BB681A683B689B7819463B681B78E5
:10062000072B03D83B681B789B0003E03B681B78D3
:10063000083B9B0001FA03F31A43BB681A60BB68CE
:100640001A683B685B7819463B681B78072B03D810
:100650003B681B789B0003E03B681B78083B9B00D2
:1006600001FA03F39B001A43BB681A605CE03B6825
:100670005B78042B03D03B685B78052B17D1BB68F4
:100680001A683B685B78191F3B681B78072B03D8F7
:100690003B681B789B0003E03B681B78083B9B0092
:1006A00001FA03F39B001A43BB681A603CE03B6805
:1006B0005B78062B03D03B685B78072B34D1BB6893
:1006C0001B683A681278072A07D83A6812789200AD
:1006D000022101FA02F2920007E03A681278083A21
:1006E0009200022101FA02F292001A43BB681A60DA
:1006F0003B685B78062B0BD17B68DB683A68127825
:10070000114601228A40D2431A407B68DA600BE02E
:100710007B68DB683A681278114601228A401A43E6
:100720007B68DA6000E000BF1437BD4680BC7047CC
:1007300080B483B000AF78600B46FB707B689A682A
:10074000FB7822FA03F3DBB203F00103DBB21846B5
:100750000C37BD4680BC704780B483B000AF786072
:100760000B46FB701346BB70BB78002B0AD17B682D
:10077000DB68FA78012101FA02F2D2431A407B6861
:10078000DA600BE0BB78012B08D17B68DB68FA7874
:10079000012101FA02F21A437B68DA6000BF0C37CC
:1007A000BD4680BC704780B483B000AF78600B4614
:1007B0007B807A887B68DA6000BF0C37BD4680BCDE
:1007C0007047000080B582B000AF0E4B9B690D4AA8
:1007D00043F0040393610B4B9B690A4A43F00803FF
:1007E0009361FFF7B1FDFFF7C3FCFFF703FD03467D
:1007F000FB71FB793F2BF8D0FB791846FFF764FEBD
:10080000F3E700BF001002400D488546AFF30080BB
:100810000C480D490D4A002302E0D458C45004335B
:10082000C4188C42F9D30A4A0A4C002301E0136031
:100830000432A242FBD300F011F8FFF7C3FFFEE73A
:10084000002800200000002018000020C408000834
:100850001800002038000020FEE7000070B50025D9
:100860000C4E0D4CA41BA410A54209D100F01AF89F
:1008700000250A4E0A4CA41BA410A54205D170BD48
:1008800056F8253098470135EEE756F82530984759
:100890000135F2E7BC080008BC080008BC080008E5
:1008A000C0080008F8B500BFF8BC08BC9E467047F9
:0C08B000F8B500BFF8BC08BC9E467047BD
:0408BC0055010008DA
:0408C00031010008FA
:1008C4002F3938372A3635342D3332312B3D3043E6
:0808D4000001030408070605FA
:0400000508000809DE
:00000001FF
