:100000000C942A000C9472000C9472000C947200F0
:100010000C9472000C9472000C9472000C94720098
:100020000C9472000C9472000C9472000C94720088
:100030000C9472000C9472000C9472000C94720078
:100040000C9472000C9472000C9472000C94720068
:100050000C94720011241FBECFE5D8E0DEBFCDBFE7
:0C0060000E9436000C946300F894FFCF5F
:10006C000E946E00959A8FE493EC0197F1F700C013
:10007C000000969A8FE493EC0197F1F700C0000012
:10008C00979A8FE493EC0197F1F700C000009798D2
:10009C008FE493EC0197F1F700C0000096988FE481
:1000AC0093EC0197F1F700C0000095988FE493EC66
:0A00BC000197F1F700C00000D5CF56
:1000C600EC010E9477000E947600CE010E94780023
:0600D600CE010E9474003F
:0800DC008D9A8E9A8F9A089507
:0400E4000C94000078
:0400E8000E9434003E
:0200EC00089575
:0200EE00089573
:0200F000089571
:00000001FF
