:100000000C942D000C9403010C9403010C94030137
:100010000C9403010C9403010C9403010C94030150
:100020000C9403010C9403010C9403010C94030140
:100030000C9403010C9403010C9403010C94030130
:100040000C9403010C9403010C9403010C94030120
:100050000C94030100600062800011241FBECFE5F4
:10006000D8E0DEBFCDBFE4E5F0E040E017C0B591D9
:10007000A59135912591059107FD0CC0959185912C
:10008000EF01F92FE82F05900D92A217B307D9F7CA
:10009000FE0104C01D92A217B307E1F7E935F4078A
:0E00A00031F70E9457000C94F800F894FFCF3F
:1000AE00CF93DF93CDB7DEB784E090E090936100FD
:1000BE00809360000E94B40082E390E022E330E07F
:1000CE00F90120812062FC0120830E94E00082E37E
:1000DE0090E022E330E0F90120812F7DFC012083A6
:1000EE0082E390E022E330E0F90120812064FC01FC
:1000FE0020830E94E00082E390E022E330E0F901E9
:10010E0020812F7BFC01208382E390E022E330E00C
:10011E00F90120812068FC0120830E94E00082E327
:10012E0090E022E330E0F90120812F77FC0120835B
:10013E0082E390E022E330E0F90120812061FC01AE
:10014E0020830E94E00082E390E022E330E0F90198
:0A015E0020812F7EFC012083AFCF2B
:10016800CF93DF93CDB7DEB781E390E021E330E0B2
:10017800F90120812061FC01208381E390E021E3E3
:1001880030E0F90120812062FC01208381E390E0C6
:1001980021E330E0F90120812064FC01208381E320
:1001A80090E021E330E0F90120812068FC01208300
:0801B8000000DF91CF910895D2
:1001C000CF93DF9300D0CDB7DEB71A82198205C076
:1001D00089819A8101969A83898389819A8180365F
:1001E0009A4EB0F300000F900F90DF91CF910895D9
:1001F000EC010E9408010E940701CE010E94090142
:06020000CE010E94050181
:040206000C94000054
:04020A000E945500F9
:02020E00089551
:0202100008954F
:0202120008954D
:00000001FF
