:020000040800F2
:1000000000280020BD0300080D0400080D040008AE
:100010000D0400080D0400080D0400080000000095
:100020000000000000000000000000000D040008B7
:100030000D040008000000000D0400080D04000875
:100040000D0400080D0400080D0400080D0400084C
:100050000D0400080D0400080D0400080D0400083C
:100060000D0400080D0400080D0400080D0400082C
:100070000D0400080D0400080D0400080D0400081C
:100080000D0400080D0400080D0400080D0400080C
:100090000D0400080D0400080D0400080D040008FC
:1000A0000D0400080D0400080D0400080D040008EC
:1000B0000D0400080D0400080D0400080D040008DC
:1000C0000D0400080D0400080D0400080D040008CC
:1000D0000D0400080D0400080D0400080D040008BC
:1000E0000D0400080D040008000000000D040008C5
:1000F0000D0400080D0400080D0400080D0400089C
:100100000D0400080D0400080D0400080D0400088B
:100110000D0400080D0400080D0400080D0400087B
:100120000D0400080D0400080D0400080D0400086B
:1001300010B5054C237833B9044B13B10448AFF321
:1001400000800123237010BD00000020000000008B
:100150005804000808B5034B1BB103490348AFF32B
:10016000008008BD000000000400002058040008C2
:1001700080B483B000AF664B1B68654A43F004034C
:100180001360634B1B68624A43F008031360042347
:100190007B60604B1B6801217A6801FA02F2D2434E
:1001A00011465C4A0B4013605A4B1B687A68013257
:1001B000012101FA02F2D2431146564A0B40136064
:1001C000544B1B687A680232012101FA02F211468F
:1001D000504A0B4313604F4B1B687A68033201216E
:1001E00001FA02F2D24311464A4A0B40136014232B
:1001F0003B60494B1B6801213A6801FA02F2D24385
:100200001146454A0B401360434B1B683A68013264
:10021000012101FA02F2D24311463F4A0B4013601A
:100220003D4B1B683A680232012101FA02F2114685
:10023000394A0B431360384B1B683A68033201217B
:1002400001FA02F2D2431146334A0B401360334B9A
:100250001B6801217A6801FA02F211462F4A0B430A
:1002600013602E4B1B687A680132012101FA02F2F9
:10027000D2431146294A0B401360284B1B687A6809
:100280000232012101FA02F2D2431146234A0B4005
:100290001360224B1B687A680332012101FA02F2D3
:1002A000D24311461D4A0B4013601D4B1B680121B0
:1002B0003A6801FA02F21146194A0B431360184BCF
:1002C0001B683A680132012101FA02F2D243114659
:1002D000134A0B401360124B1B683A68023201212B
:1002E00001FA02F2D24311460D4A0B4013600C4B47
:1002F0001B683A680332012101FA02F2D243114627
:10030000074A0B40136000BF0C37BD4680BC7047E6
:10031000181002400008014004080140000C014090
:10032000040C014080B485B000AF78600023FB600E
:100330000BE00023BB6002E0BB680133BB60BB681D
:10034000FE2BF9DDFB680133FB60FA687B689A429B
:10035000EFDB00BF1437BD4680BC704780B500AFEF
:10036000FFF706FF134B1B685B0803F00103002B2C
:100370000DD1114B1B68104A83F00203136000BFBC
:100380000C4B1B685B0803F00103002BF8D0094BF2
:100390001B685B0B03F00103012B05D1064B1B68A7
:1003A000054A83F4005313604FF47A70FFF7BAFFE5
:1003B000D8E700BF080801400C0C01400D488546F5
:1003C000AFF300800C480D490D4A002302E0D458D9
:1003D000C4500433C4188C42F9D30A4A0A4C00238F
:1003E00001E013600432A242FBD300F011F8FFF7E2
:1003F000B5FFFEE7002800200000002000000020DC
:1004000078040008000000201C000020FEE7000027
:1004100070B500250C4E0D4CA41BA410A54209D1AB
:1004200000F01AF800250A4E0A4CA41BA410A5429D
:1004300005D170BD56F8253098470135EEE756F8DE
:10044000253098470135F2E7700400087004000871
:100450007004000874040008F8B500BFF8BC08BCBC
:100460009E467047F8B500BFF8BC08BC9E46704772
:04047000550100082A
:04047400310100084A
:04000005080003BD2F
:00000001FF
