:020000040800F2
:100000000028002061040008B1040008B1040008C1
:10001000B1040008B1040008B104000800000000A9
:10002000000000000000000000000000B104000813
:10003000B104000800000000B1040008B104000889
:10004000B1040008B1040008B1040008B1040008BC
:10005000B1040008B1040008B1040008B1040008AC
:10006000B1040008B1040008B1040008B10400089C
:10007000B1040008B1040008B1040008B10400088C
:10008000B1040008B1040008B1040008B10400087C
:10009000B1040008B1040008B1040008B10400086C
:1000A000B1040008B1040008B1040008B10400085C
:1000B000B1040008B1040008B1040008B10400084C
:1000C000B1040008B1040008B1040008B10400083C
:1000D000B1040008B1040008B1040008B10400082C
:1000E000B1040008B104000800000000B1040008D9
:1000F000B1040008B1040008B1040008B10400080C
:10010000B1040008B1040008B1040008B1040008FB
:10011000B1040008B1040008B1040008B1040008EB
:10012000B1040008B1040008B1040008B1040008DB
:1001300010B5054C237833B9044B13B10448AFF321
:1001400000800123237010BD00000020000000008B
:10015000FC04000808B5034B1BB103490348AFF387
:10016000008008BD0000000004000020FC0400081E
:1001700080B485B000AF786039603B681B780F2B86
:1001800000F2B7803B681B78072B01D87B6801E041
:100190007B680433BB600023FB6019E0BB681A680E
:1001A0003B681B78072B03D83B681B789B0003E058
:1001B0003B681B78083B9B00F9680B44012101FA5E
:1001C00003F3DB431A40BB681A60FB680133FB6032
:1001D000FB68032BE2DD3B685B78032B2DD8BB6803
:1001E0001A683B689B7819463B681B78072B03D835
:1001F0003B681B789B0003E03B681B78083B9B0037
:1002000001FA03F31A43BB681A60BB681A683B68BB
:100210005B7819463B681B78072B03D83B681B7833
:100220009B0003E03B681B78083B9B0001FA03F34B
:100230009B001A43BB681A605CE03B685B78042B48
:1002400003D03B685B78052B17D1BB681A683B6805
:100250005B78191F3B681B78072B03D83B681B781A
:100260009B0003E03B681B78083B9B0001FA03F30B
:100270009B001A43BB681A603CE03B685B78062B26
:1002800003D03B685B78072B34D1BB681B683A68A6
:100290001278072A07D83A6812789200022101FAE8
:1002A00002F2920007E03A681278083A92000221BE
:1002B00001FA02F292001A43BB681A603B685B784D
:1002C000062B0BD17B68DB683A6812781146012255
:1002D0008A40D2431A407B68DA600BE07B68DB68B7
:1002E0003A681278114601228A401A437B68DA6024
:1002F00000E000BF1437BD4680BC704780B483B0B7
:1003000000AF78600B46FB707B689A68FB7822FA36
:1003100003F3DBB203F00103DBB218460C37BD4632
:1003200080BC704780B483B000AF78600B46FB7030
:100330007B68DB68FA78012101FA02F25A407B6897
:10034000DA6000BF0C37BD4680BC704780B582B014
:1003500000AF1B4B9B691A4A43F004039361184B8F
:100360009B69174A43F008039361164A3B1D1268C4
:10037000114619800233120C1A703B1D194612489F
:10038000FFF7F6FE0D233B713B1D19460E48FFF7A4
:10039000EFFE01233B7100237B710123BB713B1DE9
:1003A00019460A48FFF7E4FE0D233B713B1D194631
:1003B0000648FFF7DDFE00BF0837BD4680BD00BF21
:1003C000001002401405000800080140000C014024
:1003D00080B485B000AF78600023FB600BE00023A1
:1003E000BB6002E0BB680133BB60BB68FE2BF9DD7C
:1003F000FB680133FB60FA687B689A42EFDB00BF61
:100400001437BD4680BC704780B500AFFFF79EFF34
:1004100001211148FFF772FF0346002B0BD1012188
:100420000E48FFF77FFF00BF01210B48FFF766FF73
:100430000346002BF8D00D210748FFF75FFF034666
:10044000012B03D10D210548FFF76CFF4FF47A70A3
:10045000FFF7BEFFDCE700BF00080140000C0140D1
:100460000D488546AFF300800C480D490D4A002326
:1004700002E0D458C4500433C4188C42F9D30A4A59
:100480000A4C002301E013600432A242FBD300F0C7
:1004900011F8FFF7B9FFFEE7002800200000002058
:1004A0000000002020050008000000201C000020A3
:1004B000FEE7000070B500250C4E0D4CA41BA410E7
:1004C000A54209D100F01AF800250A4E0A4CA41BD7
:1004D000A410A54205D170BD56F8253098470135C6
:1004E000EEE756F8253098470135F2E71805000881
:1004F00018050008180500081C050008F8B500BF1D
:10050000F8BC08BC9E467047F8B500BFF8BC08BCF4
:040510009E4670474C
:0405140005010000DD
:040518005501000881
:04051C0031010008A1
:04000005080004618A
:00000001FF
