:020000040800F2
:10000000002800204D0A00089D0A00089D0A0008EB
:100010009D0A00089D0A00089D0A000800000000D3
:100020000000000000000000000000009D0A000821
:100030009D0A0008000000009D0A00089D0A0008B3
:100040009D0A00089D0A00089D0A00089D0A0008F4
:100050009D0A00089D0A00089D0A00089D0A0008E4
:100060009D0A00089D0A00089D0A00089D0A0008D4
:100070009D0A00089D0A00089D0A00089D0A0008C4
:100080009D0A00089D0A00089D0A00089D0A0008B4
:100090009D0A00089D0A00089D0A00089D0A0008A4
:1000A0009D0A00089D0A00089D0A00089D0A000894
:1000B0009D0A00089D0A00089D0A00089D0A000884
:1000C0009D0A00089D0A00089D0A00089D0A000874
:1000D0009D0A0008D10700083508000899080008A3
:1000E0009D0A00089D0A0008000000009D0A000803
:1000F0009D0A00089D0A00089D0A00089D0A000844
:100100009D0A00089D0A00089D0A00089D0A000833
:10011000FD080008610900089D0A00089D0A000802
:100120009D0A00089D0A00089D0A00089D0A000813
:1001300010B5054C237833B9044B13B10448AFF321
:1001400000800123237010BD040000200000000087
:10015000E80A000808B5034B1BB103490348AFF395
:10016000008008BD0000000008000020E80A000828
:1001700080B485B000AF786039603B681B780F2B86
:1001800000F2B7803B681B78072B01D87B6801E041
:100190007B680433BB600023FB6019E0BB681A680E
:1001A0003B681B78072B03D83B681B789B0003E058
:1001B0003B681B78083B9B00F9680B44012101FA5E
:1001C00003F3DB431A40BB681A60FB680133FB6032
:1001D000FB68032BE2DD3B685B78032B2DD8BB6803
:1001E0001A683B689B7819463B681B78072B03D835
:1001F0003B681B789B0003E03B681B78083B9B0037
:1002000001FA03F31A43BB681A60BB681A683B68BB
:100210005B7819463B681B78072B03D83B681B7833
:100220009B0003E03B681B78083B9B0001FA03F34B
:100230009B001A43BB681A605CE03B685B78042B48
:1002400003D03B685B78052B17D1BB681A683B6805
:100250005B78191F3B681B78072B03D83B681B781A
:100260009B0003E03B681B78083B9B0001FA03F30B
:100270009B001A43BB681A603CE03B685B78062B26
:1002800003D03B685B78072B34D1BB681B683A68A6
:100290001278072A07D83A6812789200022101FAE8
:1002A00002F2920007E03A681278083A92000221BE
:1002B00001FA02F292001A43BB681A603B685B784D
:1002C000062B0BD17B68DB683A6812781146012255
:1002D0008A40D2431A407B68DA600BE07B68DB68B7
:1002E0003A681278114601228A401A437B68DA6024
:1002F00000E000BF1437BD4680BC704780B400AF3B
:10030000074B5B689B0803F00303002B01D1054BEF
:1003100001E04FF0FF331846BD4680BC704700BF78
:100320000010024000127A0080B582B000AF0B4B83
:100330005B681B09DBB203F00F03FB71FB79084A12
:1003400032F81330BB71FFF7D9FF0246BB79B2FB1D
:10035000F3F318460837BD4680BD00BF00100240C9
:10036000100B000880B582B000AF0C4B5B681B0A15
:10037000DBB203F00703FB71FB79032B38BF0323C8
:10038000DBB2033BBB71FFF7CFFF0246BB7922FA1A
:1003900003F318460837BD4680BD00BF0010024079
:1003A00080B582B000AF0C4B5B68DB0ADBB203F0B8
:1003B0000703FB71FB79032B38BF0323DBB2033B3D
:1003C000BB71FFF7B1FF0246BB7922FA03F318466F
:1003D0000837BD4680BD00BF0010024090B587B011
:1003E00000AF786039607B68954A934219D07B688A
:1003F000944A934213D07B68934A93420DD07B6812
:10040000924A934207D07B68914A934201D10523D7
:1004100008E0FF2306E0042304E0032302E00223B4
:1004200000E001233B753B7D012B06D1894B9B6985
:10043000884A43F48043936110E03B7D052B0DD83F
:100440003B7D012B0AD9834BDB693A7D0F320121B9
:1004500001FA02F211467F4A0B43D3617B68DB68E5
:1004600043F400527B68DA603B68DA797A4B1A70A1
:100470003B68DB79002B06D17B68DB6823F4805274
:100480007B68DA6009E03B68DB79012B05D17B688A
:10049000DB6843F480527B68DA607B681B6923F475
:1004A00080527B681A617B681B6923F400527B6869
:1004B0001A617B681B693A6892791A437B681A61F2
:1004C0003B685B79002B03D0644B01221A7002E079
:1004D000624B00221A707B68DB6823F480627B68C1
:1004E000DA607B68DB6823F400727B68DA607B6823
:1004F000DB683A68527952021A437B68DA607B689B
:100500004F4A934226D1FFF74BFFF8603B681B68C8
:100510001B01FA68B2FBF3F3FB82FA6813469B00F7
:1005200013449A001A443B681B689B00B2FBF3F229
:100530003B681B681B01F968B1FBF3F3642101FB05
:1005400003F3D31A1B013233454AA2FB03235B0991
:100550007B7525E0FFF706FF38613B681B681B01D0
:100560003A69B2FBF3F3FB823A6913469B001344EA
:100570009A001A443B681B689B00B2FBF3F23B688D
:100580001B681B013969B1FBF3F3642101FB03F321
:10059000D31A1B013233324AA2FB03235B097B755A
:1005A0007B7D102B02D1FB8A0133FB827B6800220A
:1005B0009A60FB8A1A017B7D03F00F0313431A46EE
:1005C0007B689A603B681B7A052B58D801A252F8C9
:1005D00023F000BFED050008FB0500080906000830
:1005E0002306000831060008650600087B68DB6802
:1005F00043F008027B68DA6041E07B68DB6843F027
:1006000004027B68DA603AE07B68DB6843F004024E
:100610007B68DA607B68DB6843F008027B68DA603D
:100620002DE07B68DB6823F008027B68DA6026E057
:100630007B68DB6823F004027B68DA601FE000BFA0
:10064000003801400044004000480040004C004099
:100650000050004000100240000000202000002058
:100660001F85EB517B68DB6823F004027B68DA604E
:100670007B68DB6823F008027B68DA6000BF7B6878
:10068000224A934219D07B68214A934213D07B6857
:10069000204A93420DD07B681F4A934207D07B6863
:1006A0001E4A934201D1352308E0FF2306E034239C
:1006B00004E0272302E0262300E02523FB723B68A9
:1006C0005B7A802B1DD83B685B7A1F2B19D97B681E
:1006D000DB683A68527A1A437B68DA60104AFB7A20
:1006E0005B09D8B2034652F82330FA7A02F01F02AF
:1006F000012101FA02F21446094A0146234342F855
:10070000213000BF1C37BD4690BD00BF00380140FE
:100710000044004000480040004C004000500040B1
:1007200000E100E080B483B000AF78600B467B80CE
:1007300013467B707B78002B07D000BF7B681B685B
:10074000DB0903F00103002BF8D07A887B685A603C
:1007500000BF0C37BD4680BC7047000080B483B03A
:1007600000AF78600B46FB70FB78002B07D000BF12
:100770007B681B685B0903F00103002BF8D0124B68
:100780001B78002B17D0114B1B78002B06D17B68F0
:100790005B689BB203F07F039BB20FE00B4B1B78AF
:1007A000012B05D17B685B689BB2DBB29BB205E095
:1007B0004FF6FF7302E07B685B689BB218460C370C
:1007C000BD4680BC704700BF200000200000002014
:1007D00080B500AF134B1B68DB0903F00103012B4D
:1007E00003D1114B1B6898471AE00E4B1B689B09FD
:1007F00003F00103012B09D10C4B1B689847094BEF
:100800001B68084A23F04003136009E0054B1B688E
:100810005B0903F00103012B02D1054B1B689847CC
:1008200000BF80BD00380140240000204C000020A3
:100830003800002080B500AF134B1B68DB0903F0C4
:100840000103012B03D1114B5B6898471AE00E4B53
:100850001B689B0903F00103012B09D10C4B5B685A
:100860009847094B1B68084A23F04003136009E0CE
:10087000054B1B685B0903F00103012B02D1054BFB
:100880005B68984700BF80BD004400402400002002
:100890004C0000203800002080B500AF134B1B68CF
:1008A000DB0903F00103012B03D1114B9B6898472F
:1008B0001AE00E4B1B689B0903F00103012B09D1C1
:1008C0000C4B9B689847094B1B68084A23F0400370
:1008D000136009E0054B1B685B0903F00103012B62
:1008E00002D1054B9B68984700BF80BD004800407F
:1008F000240000204C0000203800002080B500AF0C
:10090000134B1B68DB0903F00103012B03D1114BCF
:10091000DB6898471AE00E4B1B689B0903F0010344
:10092000012B09D10C4BDB689847094B1B68084A1F
:1009300023F04003136009E0054B1B685B0903F0DB
:100940000103012B02D1054BDB68984700BF80BD36
:10095000004C0040240000204C0000203800002003
:1009600080B500AF134B1B68DB0903F00103012BBB
:1009700003D1114B1B6998471AE00E4B1B689B096A
:1009800003F00103012B09D10C4B1B699847094B5C
:100990001B68084A23F04003136009E0054B1B68FD
:1009A0005B0903F00103012B02D1054B1B6998473A
:1009B00000BF80BD00500040240000204C000020FB
:1009C0003800002080B586B000AF1B4B9B691A4AE7
:1009D00043F004039361194A07F1100312681146AA
:1009E00019800233120C1A7007F1100319461448CB
:1009F000FFF7BEFB0A233B7405237B7407F110034A
:100A000019460F48FFF7B4FB0E4A3B1D07CA83E89F
:100A100007003B1D19460C48FFF7E0FC01210A487E
:100A2000FFF79CFE0346FB82FB8A0122194606481B
:100A3000FFF778FEF2E700BF00100240000B00084D
:100A400000080140040B0008003801400D488546AD
:100A5000AFF300800C480D490D4A002302E0D45842
:100A6000C4500433C4188C42F9D30A4A0A4C0023F8
:100A700001E013600432A242FBD300F011F8FFF74B
:100A8000A1FFFEE700280020000000200400002055
:100A9000380B00080400002060000020FEE7000082
:100AA00070B500250C4E0D4CA41BA410A54209D115
:100AB00000F01AF800250A4E0A4CA41BA410A54207
:100AC00005D170BD56F8253098470135EEE756F848
:100AD000253098470135F2E7300B0008300B00084D
:100AE000300B0008340B0008F8B500BFF8BC08BC98
:100AF0009E467047F8B500BFF8BC08BC9E467047DC
:100B00000902010080250000000000000200000032
:100B100001000100010001000100010001000100CD
:100B200002000400080010004000800000010002E4
:040B30005501000863
:040B34003101000883
:040B3800FF000000BA
:0400000508000A4D98
:00000001FF
