S0160000554152545F53656374696F6E5F312E737265630E
S11300000C942A000C9447000C9447000C9447006D
S11300100C9447000C9447000C9447000C94470040
S11300200C9447000C9447000C9447000C94470030
S11300300C9447000C9447000C9447000C94470020
S11300400C9447000C9447000C9447000C94470010
S11300500C94470011241FBECFE5D8E0DEBFCDBF0E
S113006010E0A0E6B0E0ECE3F2E002C005900D92EF
S1130070AE36B107D9F720E0AEE6B0E001C01D927C
S1130080AF36B207E1F70E9449000C941C010C94AE
S11300900000CF93DF9300D000D000D0CDB7DEB7FF
S11300A086E0E0E6F0E0DE01119601900D928A957B
S11300B0E1F7CE0101960E94620086E690E00E947C
S11300C0EC00FFCFFC0180B5806880BD8081811188
S11300D004C080B58F7B80BD05C0813019F480B524
S11300E0806480BD80B58F7D80BD80B58F7E80BDEE
S11300F020B5918130E1939FC0011124822B80BDF2
S11301008281811104C080B5877F80BD05C08130A4
S113011019F480B5886080BD80B58B7F80BD80B5C3
S11301208D7F80BD93818BEF890F843050F480B52F
S1130130292F30E025503109220F331F282B20BDF1
S113014015C0993069F481E080936E0080B58460B5
S113015080BD80B5826080BD8AB184608AB906C0E2
S113016080B5846080BD80B5826080BD2481358186
S1130170C901A0E0B0E0880F991FAA1FBB1F880F18
S1130180991FAA1FBB1F9C01AD01220F331F441FDF
S1130190551F220F331F441F551F60E072E18AE789
S11301A090E00E94FA002150310929B980B58F7777
S11301B080BD10BC8AB188608AB98AB180618AB96D
S11301C008955D9BFECF90916E00992319F09AB12A
S11301D09E7F9AB98CB90895CF93DF93EC0104C044
S11301E090E00E94E100219688818111F9CFDF918E
S11301F0CF910895A1E21A2EAA1BBB1BFD010DC0CD
S1130200AA1FBB1FEE1FFF1FA217B307E407F507C2
S113021020F0A21BB30BE40BF50B661F771F881F9E
S1130220991F1A9469F760957095809590959B0134
S10F0230AC01BD01CF010895F894FFCF8C
S111023C000000088025414243444546470027
S9030000FC
