:100000000C942A000C9436000C9455000C94740047
:100010000C94CF000C94CF000C94CF000C94CF0024
:100020000C94CF000C94CF000C94CF000C94CF0014
:100030000C94CF000C94CF000C94CF000C94CF0004
:100040000C94CF000C94CF000C94CF000C94CF00F4
:100050000C94CF0011241FBECFE5D8E0DEBFCDBF8A
:0C0060000E94CA000C94BF00F894FFCF6F
:10006C001F920F920FB60F9211242F938F939F9381
:10007C0082B3806282BB2FE38DE093E021508040FD
:10008C009040E1F700C0000082B38F7D82BB9F914E
:0E009C008F912F910F900FBE0F901F9018950F
:1000AA001F920F920FB60F9211242F938F939F9343
:1000BA0082B3806482BB2FE38DE093E021508040BD
:1000CA009040E1F700C0000082B38F7B82BB9F9112
:0E00DA008F912F910F900FBE0F901F901895D1
:1000E8001F920F920FB60F9211242F938F939F9305
:1000F80082B3806882BB2FE38DE093E0215080407B
:100108009040E1F700C0000082B38F7782BB9F91D7
:0E0118008F912F910F900FBE0F901F90189592
:1001260085B7846085BF85B7886085BF85B78160E0
:1001360085BF84B78F7B84BF8BB780688BBF8BB737
:1001460080648BBF8BB780628BBF8FB780688FBF91
:0201560008950A
:1001580081B38B7F81BB81B3877F81BB87B38B7F63
:1001680087BB81B3806281BB81B3806481BB81B36B
:06017800806881BB0895C0
:10017E00EC010E94D4000E94D300CE010E94D50053
:06018E00CE010E94D10029
:0A0194000E94AC000E949300FFCF10
:04019E000C940000BD
:0401A2000E94340083
:0201A6000895BA
:0201A8000895B8
:0201AA000895B6
:00000001FF
