:020000040800F2
:1000000000280020FD0800084D0900084D090008DF
:100010004D0900084D0900084D09000800000000C6
:100020000000000000000000000000004D09000872
:100030004D090008000000004D0900084D090008A6
:100040004D0900084D0900084D0900084D09000838
:100050004D0900084D0900084D0900084D09000828
:100060004D0900084D0900084D0900084D09000818
:100070004D0900084D0900084D0900084D09000808
:100080004D0900084D0900084D0900084D090008F8
:100090004D0900084D0900084D0900084D090008E8
:1000A0004D0900084D0900084D0900084D090008D8
:1000B0004D0900084D0900084D0900084D090008C8
:1000C0004D0900084D0900084D0900084D090008B8
:1000D0004D090008F1070008050800081908000884
:1000E0004D0900084D090008000000004D090008F6
:1000F0004D0900084D0900084D0900084D09000888
:100100004D0900084D0900084D0900084D09000877
:100110002D080008410800084D0900084D09000895
:100120004D0900084D0900084D0900084D09000857
:1001300010B5054C237833B9044B13B10448AFF321
:1001400000800123237010BD040000200000000087
:100150009809000808B5034B1BB103490348AFF3E6
:10016000008008BD00000000080000209809000879
:1001700080B485B000AF786039603B681B780F2B86
:1001800000F2B7803B681B78072B01D87B6801E041
:100190007B680433BB600023FB6019E0BB681A680E
:1001A0003B681B78072B03D83B681B789B0003E058
:1001B0003B681B78083B9B00F9680B44012101FA5E
:1001C00003F3DB431A40BB681A60FB680133FB6032
:1001D000FB68032BE2DD3B685B78032B2DD8BB6803
:1001E0001A683B689B7819463B681B78072B03D835
:1001F0003B681B789B0003E03B681B78083B9B0037
:1002000001FA03F31A43BB681A60BB681A683B68BB
:100210005B7819463B681B78072B03D83B681B7833
:100220009B0003E03B681B78083B9B0001FA03F34B
:100230009B001A43BB681A605CE03B685B78042B48
:1002400003D03B685B78052B17D1BB681A683B6805
:100250005B78191F3B681B78072B03D83B681B781A
:100260009B0003E03B681B78083B9B0001FA03F30B
:100270009B001A43BB681A603CE03B685B78062B26
:1002800003D03B685B78072B34D1BB681B683A68A6
:100290001278072A07D83A6812789200022101FAE8
:1002A00002F2920007E03A681278083A92000221BE
:1002B00001FA02F292001A43BB681A603B685B784D
:1002C000062B0BD17B68DB683A6812781146012255
:1002D0008A40D2431A407B68DA600BE07B68DB68B7
:1002E0003A681278114601228A401A437B68DA6024
:1002F00000E000BF1437BD4680BC704780B400AF3B
:10030000074B5B689B0803F00303002B01D1054BEF
:1003100001E04FF0FF331846BD4680BC704700BF78
:100320000010024000127A0080B582B000AF0B4B83
:100330005B681B09DBB203F00F03FB71FB79084A12
:1003400032F81330BB71FFF7D9FF0246BB79B2FB1D
:10035000F3F318460837BD4680BD00BF00100240C9
:10036000C009000880B582B000AF0C4B5B681B0A67
:10037000DBB203F00703FB71FB79032B38BF0323C8
:10038000DBB2033BBB71FFF7CFFF0246BB7922FA1A
:1003900003F318460837BD4680BD00BF0010024079
:1003A00080B582B000AF0C4B5B68DB0ADBB203F0B8
:1003B0000703FB71FB79032B38BF0323DBB2033B3D
:1003C000BB71FFF7B1FF0246BB7922FA03F318466F
:1003D0000837BD4680BD00BF0010024090B587B011
:1003E00000AF786039607B68954A934219D07B688A
:1003F000944A934213D07B68934A93420DD07B6812
:10040000924A934207D07B68914A934201D10523D7
:1004100008E0FF2306E0042304E0032302E00223B4
:1004200000E001233B753B7D012B06D1894B9B6985
:10043000884A43F48043936110E03B7D052B0DD83F
:100440003B7D012B0AD9834BDB693A7D0F320121B9
:1004500001FA02F211467F4A0B43D3617B68DB68E5
:1004600043F400527B68DA603B68DA797A4B1A70A1
:100470003B68DB79002B06D17B68DB6823F4805274
:100480007B68DA6009E03B68DB79012B05D17B688A
:10049000DB6843F480527B68DA607B681B6923F475
:1004A00080527B681A617B681B6923F400527B6869
:1004B0001A617B681B693A6892791A437B681A61F2
:1004C0003B685B79002B03D0644B01221A7002E079
:1004D000624B00221A707B68DB6823F480627B68C1
:1004E000DA607B68DB6823F400727B68DA607B6823
:1004F000DB683A68527952021A437B68DA607B689B
:100500004F4A934226D1FFF74BFFF8603B681B68C8
:100510001B01FA68B2FBF3F3FB82FA6813469B00F7
:1005200013449A001A443B681B689B00B2FBF3F229
:100530003B681B681B01F968B1FBF3F3642101FB05
:1005400003F3D31A1B013233454AA2FB03235B0991
:100550007B7525E0FFF706FF38613B681B681B01D0
:100560003A69B2FBF3F3FB823A6913469B001344EA
:100570009A001A443B681B689B00B2FBF3F23B688D
:100580001B681B013969B1FBF3F3642101FB03F321
:10059000D31A1B013233324AA2FB03235B097B755A
:1005A0007B7D102B02D1FB8A0133FB827B6800220A
:1005B0009A60FB8A1A017B7D03F00F0313431A46EE
:1005C0007B689A603B681B7A052B58D801A252F8C9
:1005D00023F000BFED050008FB0500080906000830
:1005E0002306000831060008650600087B68DB6802
:1005F00043F008027B68DA6041E07B68DB6843F027
:1006000004027B68DA603AE07B68DB6843F004024E
:100610007B68DA607B68DB6843F008027B68DA603D
:100620002DE07B68DB6823F008027B68DA6026E057
:100630007B68DB6823F004027B68DA601FE000BFA0
:10064000003801400044004000480040004C004099
:100650000050004000100240000000202000002058
:100660001F85EB517B68DB6823F004027B68DA604E
:100670007B68DB6823F008027B68DA6000BF7B6878
:10068000224A934219D07B68214A934213D07B6857
:10069000204A93420DD07B681F4A934207D07B6863
:1006A0001E4A934201D1352308E0FF2306E034239C
:1006B00004E0272302E0262300E02523FB723B68A9
:1006C0005B7A802B1DD83B685B7A1F2B19D97B681E
:1006D000DB683A68527A1A437B68DA60104AFB7A20
:1006E0005B09D8B2034652F82330FA7A02F01F02AF
:1006F000012101FA02F21446094A0146234342F855
:10070000213000BF1C37BD4690BD00BF00380140FE
:100710000044004000480040004C004000500040B1
:1007200000E100E080B483B000AF78603960044A33
:100730007B68136000BF0C37BD4680BC704700BFAC
:100740002400002080B483B000AF78600B467B802B
:1007500013467B707B78002B07D000BF7B681B683B
:10076000DB0903F00103002BF8D07A887B685A601C
:1007700000BF0C37BD4680BC7047000080B483B01A
:1007800000AF78600B46FB70FB78002B07D000BFF2
:100790007B681B685B0903F00103002BF8D0124B48
:1007A0001B78002B17D0114B1B78002B06D17B68D0
:1007B0005B689BB203F07F039BB20FE00B4B1B788F
:1007C000012B05D17B685B689BB2DBB29BB205E075
:1007D0004FF6FF7302E07B685B689BB218460C37EC
:1007E000BD4680BC704700BF2000002000000020F4
:1007F00080B500AF024B1B68984700BF80BD00BFAB
:100800002400002080B500AF024B1B68984700BF52
:1008100080BD00BF2400002080B500AF024B1B68E4
:10082000984700BF80BD00BF2400002080B500AF06
:10083000024B1B68984700BF80BD00BF240000200A
:1008400080B500AF024B1B68984700BF80BD00BF5A
:100850002400002080B582B000AF00210748FFF7D8
:100860008DFF0346FB80FB88002219460348FFF7F3
:1008700069FF00BF0837BD4680BD00BF003801409A
:1008800080B584B000AF174B9B69164A43F0040350
:100890009361154A07F10C0312681146198002335F
:1008A000120C1A7007F10C0319461048FFF760FC90
:1008B0000A233B7305237B7307F10C0319460B488E
:1008C000FFF756FC0A4A3B4607CA83E807003B4647
:1008D00019460848FFF782FD06490748FFF722FF3F
:1008E000FEE700BF00100240B00900080008014008
:1008F000B409000800380140550800080D48854635
:10090000AFF300800C480D490D4A002302E0D45893
:10091000C4500433C4188C42F9D30A4A0A4C002349
:1009200001E013600432A242FBD300F011F8FFF79C
:10093000A7FFFEE7002800200000002004000020A0
:10094000E80900080400002028000020FEE700005D
:1009500070B500250C4E0D4CA41BA410A54209D166
:1009600000F01AF800250A4E0A4CA41BA410A54258
:1009700005D170BD56F8253098470135EEE756F899
:10098000253098470135F2E7E0090008E009000842
:10099000E0090008E4090008F8B500BFF8BC08BC8D
:1009A0009E467047F8B500BFF8BC08BC9E4670472D
:1009B0000902010080250000000000000220000064
:1009C000010001000100010001000100010001001F
:1009D0000200040008001000400080000001000236
:0409E00055010008B5
:0409E40031010008D5
:0409E800FF0000000C
:04000005080008FDEA
:00000001FF
